{
  "_format": "hh-sol-artifact-1",
  "contractName": "FriendsFaucet",
  "sourceName": "contracts/facets/Persons/FriendsFaucet.sol",
  "abi": [
    {
      "inputs": [
        {
          "internalType": "uint256",
          "name": "_personId",
          "type": "uint256"
        },
        {
          "internalType": "uint256",
          "name": "_friendId",
          "type": "uint256"
        }
      ],
      "name": "addFriend",
      "outputs": [],
      "stateMutability": "nonpayable",
      "type": "function"
    },
    {
      "inputs": [
        {
          "internalType": "uint256",
          "name": "_personId",
          "type": "uint256"
        }
      ],
      "name": "getFriends",
      "outputs": [
        {
          "internalType": "uint256[]",
          "name": "friends_",
          "type": "uint256[]"
        }
      ],
      "stateMutability": "view",
      "type": "function"
    }
  ],
  "bytecode": "0x608060405234801561001057600080fd5b506102f4806100206000396000f3fe608060405234801561001057600080fd5b50600436106100365760003560e01c80631c9a53ce1461003b578063c4132d7f1461006b575b600080fd5b6100556004803603810190610050919061014b565b610087565b604051610062919061023d565b60405180910390f35b61008560048036038101906100809190610178565b6100f5565b005b6060600060020160008381526020019081526020016000208054806020026020016040519081016040528092919081815260200182805480156100e957602002820191906000526020600020905b8154815260200190600101908083116100d5575b50505050509050919050565b600060020160008381526020019081526020016000208190806001815401808255809150506001900390600052602060002001600090919091909150555050565b600081359050610145816102a7565b92915050565b600060208284031215610161576101606102a2565b5b600061016f84828501610136565b91505092915050565b6000806040838503121561018f5761018e6102a2565b5b600061019d85828601610136565b92505060206101ae85828601610136565b9150509250929050565b60006101c4838361022e565b60208301905092915050565b60006101db8261026f565b6101e58185610287565b93506101f08361025f565b8060005b8381101561022157815161020888826101b8565b97506102138361027a565b9250506001810190506101f4565b5085935050505092915050565b61023781610298565b82525050565b6000602082019050818103600083015261025781846101d0565b905092915050565b6000819050602082019050919050565b600081519050919050565b6000602082019050919050565b600082825260208201905092915050565b6000819050919050565b600080fd5b6102b081610298565b81146102bb57600080fd5b5056fea2646970667358221220210a559945b0e091dd337dacb4647acf103afacb1b6f94eebb3f541f3faff99564736f6c63430008060033",
  "linkReferences": {},
  "deployedLinkReferences": {}
}