{
  "_format": "hh-sol-artifact-1",
  "contractName": "Test2Facet",
  "sourceName": "contracts/facets/Test2Facet.sol",
  "abi": [
    {
      "inputs": [],
      "name": "test2Func1",
      "outputs": [
        {
          "internalType": "string",
          "name": "",
          "type": "string"
        }
      ],
      "stateMutability": "pure",
      "type": "function"
    },
    {
      "inputs": [],
      "name": "test2Func10",
      "outputs": [],
      "stateMutability": "nonpayable",
      "type": "function"
    },
    {
      "inputs": [],
      "name": "test2Func11",
      "outputs": [],
      "stateMutability": "nonpayable",
      "type": "function"
    },
    {
      "inputs": [],
      "name": "test2Func12",
      "outputs": [],
      "stateMutability": "nonpayable",
      "type": "function"
    },
    {
      "inputs": [],
      "name": "test2Func13",
      "outputs": [],
      "stateMutability": "nonpayable",
      "type": "function"
    },
    {
      "inputs": [],
      "name": "test2Func14",
      "outputs": [],
      "stateMutability": "nonpayable",
      "type": "function"
    },
    {
      "inputs": [],
      "name": "test2Func15",
      "outputs": [],
      "stateMutability": "nonpayable",
      "type": "function"
    },
    {
      "inputs": [],
      "name": "test2Func16",
      "outputs": [],
      "stateMutability": "nonpayable",
      "type": "function"
    },
    {
      "inputs": [],
      "name": "test2Func17",
      "outputs": [],
      "stateMutability": "nonpayable",
      "type": "function"
    },
    {
      "inputs": [],
      "name": "test2Func18",
      "outputs": [],
      "stateMutability": "nonpayable",
      "type": "function"
    },
    {
      "inputs": [],
      "name": "test2Func19",
      "outputs": [],
      "stateMutability": "nonpayable",
      "type": "function"
    },
    {
      "inputs": [],
      "name": "test2Func2",
      "outputs": [],
      "stateMutability": "nonpayable",
      "type": "function"
    },
    {
      "inputs": [],
      "name": "test2Func20",
      "outputs": [],
      "stateMutability": "nonpayable",
      "type": "function"
    },
    {
      "inputs": [],
      "name": "test2Func3",
      "outputs": [],
      "stateMutability": "nonpayable",
      "type": "function"
    },
    {
      "inputs": [],
      "name": "test2Func4",
      "outputs": [],
      "stateMutability": "nonpayable",
      "type": "function"
    },
    {
      "inputs": [],
      "name": "test2Func5",
      "outputs": [],
      "stateMutability": "nonpayable",
      "type": "function"
    },
    {
      "inputs": [],
      "name": "test2Func6",
      "outputs": [],
      "stateMutability": "nonpayable",
      "type": "function"
    },
    {
      "inputs": [],
      "name": "test2Func7",
      "outputs": [],
      "stateMutability": "nonpayable",
      "type": "function"
    },
    {
      "inputs": [],
      "name": "test2Func8",
      "outputs": [],
      "stateMutability": "nonpayable",
      "type": "function"
    },
    {
      "inputs": [],
      "name": "test2Func9",
      "outputs": [],
      "stateMutability": "nonpayable",
      "type": "function"
    }
  ],
  "bytecode": "0x608060405234801561001057600080fd5b50610361806100206000396000f3fe608060405234801561001057600080fd5b506004361061012c5760003560e01c80638ee8be30116100ad578063d2f0c73e11610071578063d2f0c73e146101c7578063e5f687b2146101d1578063e7de23a4146101db578063ea36b558146101e5578063ef3f4d78146102035761012c565b80638ee8be301461019557806391d0396b1461019f578063c670641d146101a9578063ca5fa5c0146101b3578063caae8f23146101bd5761012c565b80632e463958116100f45780632e463958146101635780635fd6312b1461016d5780636dc16b0114610177578063792a8e2e14610181578063884280a61461018b5761012c565b806303feeeae146101315780630c103a931461013b5780630e4cd7fc14610145578063148843091461014f57806317fd06e714610159575b600080fd5b61013961020d565b005b61014361020f565b005b61014d610211565b005b610157610213565b005b610161610215565b005b61016b610217565b005b610175610219565b005b61017f61021b565b005b61018961021d565b005b61019361021f565b005b61019d610221565b005b6101a7610223565b005b6101b1610225565b005b6101bb610227565b005b6101c5610229565b005b6101cf61022b565b005b6101d961022d565b005b6101e361022f565b005b6101ed610231565b6040516101fa91906102a9565b60405180910390f35b61020b61026e565b005b565b565b565b565b565b565b565b565b565b565b565b565b565b565b565b565b565b565b60606040518060400160405280601781526020017f54657374324661636574202d20746573743246756e6331000000000000000000815250905090565b565b600061027b826102cb565b61028581856102d6565b93506102958185602086016102e7565b61029e8161031a565b840191505092915050565b600060208201905081810360008301526102c38184610270565b905092915050565b600081519050919050565b600082825260208201905092915050565b60005b838110156103055780820151818401526020810190506102ea565b83811115610314576000848401525b50505050565b6000601f19601f830116905091905056fea26469706673582212203544123fb3f43a61c9efc00464961cd4895fc0e3e170600fcce3b770723b070364736f6c63430008060033",
  "linkReferences": {},
  "deployedLinkReferences": {}
}