{
  "_format": "hh-sol-artifact-1",
  "contractName": "PersonsFaucet",
  "sourceName": "contracts/facets/Persons/PersonsFaucet.sol",
  "abi": [
    {
      "inputs": [
        {
          "internalType": "uint256",
          "name": "_personId",
          "type": "uint256"
        }
      ],
      "name": "getPerson",
      "outputs": [
        {
          "components": [
            {
              "internalType": "string",
              "name": "name",
              "type": "string"
            },
            {
              "internalType": "uint256",
              "name": "age",
              "type": "uint256"
            }
          ],
          "internalType": "struct Person",
          "name": "person_",
          "type": "tuple"
        }
      ],
      "stateMutability": "view",
      "type": "function"
    },
    {
      "inputs": [
        {
          "internalType": "string",
          "name": "_name",
          "type": "string"
        },
        {
          "internalType": "uint256",
          "name": "_age",
          "type": "uint256"
        }
      ],
      "name": "mintPerson",
      "outputs": [],
      "stateMutability": "nonpayable",
      "type": "function"
    }
  ],
  "bytecode": "0x608060405234801561001057600080fd5b50610617806100206000396000f3fe608060405234801561001057600080fd5b50600436106100365760003560e01c8063246982c41461003b5780635de1db9a1461006b575b600080fd5b6100556004803603810190610050919061039a565b610087565b604051610062919061044c565b60405180910390f35b6100856004803603810190610080919061033a565b610153565b005b61008f610212565b600060010160008381526020019081526020016000206040518060400160405290816000820180546100c0906104c7565b80601f01602080910402602001604051908101604052809291908181526020018280546100ec906104c7565b80156101395780601f1061010e57610100808354040283529160200191610139565b820191906000526020600020905b81548152906001019060200180831161011c57829003601f168201915b505050505081526020016001820154815250509050919050565b6000806000015490508080610167906104f9565b915050806000800181905550604051806040016040528085858080601f016020809104026020016040519081016040528093929190818152602001838380828437600081840152601f19601f820116905080830192505050505050508152602001838152506000600101600083815260200190815260200160002060008201518160000190805190602001906101fe92919061022c565b506020820151816001015590505050505050565b604051806040016040528060608152602001600081525090565b828054610238906104c7565b90600052602060002090601f01602090048101928261025a57600085556102a1565b82601f1061027357805160ff19168380011785556102a1565b828001600101855582156102a1579182015b828111156102a0578251825591602001919060010190610285565b5b5090506102ae91906102b2565b5090565b5b808211156102cb5760008160009055506001016102b3565b5090565b60008083601f8401126102e5576102e46105a5565b5b8235905067ffffffffffffffff811115610302576103016105a0565b5b60208301915083600182028301111561031e5761031d6105aa565b5b9250929050565b600081359050610334816105ca565b92915050565b600080600060408486031215610353576103526105b4565b5b600084013567ffffffffffffffff811115610371576103706105af565b5b61037d868287016102cf565b9350935050602061039086828701610325565b9150509250925092565b6000602082840312156103b0576103af6105b4565b5b60006103be84828501610325565b91505092915050565b60006103d28261046e565b6103dc8185610479565b93506103ec818560208601610494565b6103f5816105b9565b840191505092915050565b6000604083016000830151848203600086015261041d82826103c7565b9150506020830151610432602086018261043d565b508091505092915050565b6104468161048a565b82525050565b600060208201905081810360008301526104668184610400565b905092915050565b600081519050919050565b600082825260208201905092915050565b6000819050919050565b60005b838110156104b2578082015181840152602081019050610497565b838111156104c1576000848401525b50505050565b600060028204905060018216806104df57607f821691505b602082108114156104f3576104f2610571565b5b50919050565b60006105048261048a565b91507fffffffffffffffffffffffffffffffffffffffffffffffffffffffffffffffff82141561053757610536610542565b5b600182019050919050565b7f4e487b7100000000000000000000000000000000000000000000000000000000600052601160045260246000fd5b7f4e487b7100000000000000000000000000000000000000000000000000000000600052602260045260246000fd5b600080fd5b600080fd5b600080fd5b600080fd5b600080fd5b6000601f19601f8301169050919050565b6105d38161048a565b81146105de57600080fd5b5056fea2646970667358221220cf7ff9bbed5425181d248686401ee6aa151a3b0c17b757c44b4c1b087468536164736f6c63430008060033",
  "linkReferences": {},
  "deployedLinkReferences": {}
}