{"contracts/facets/Persons/FriendsFaucet.sol":{"FriendsFaucet":{"abi":[{"inputs":[{"internalType":"uint256","name":"_personId","type":"uint256"},{"internalType":"uint256","name":"_friendId","type":"uint256"}],"name":"addFriend","outputs":[],"stateMutability":"nonpayable","type":"function"},{"inputs":[{"internalType":"uint256","name":"_personId","type":"uint256"}],"name":"getFriends","outputs":[{"internalType":"uint256[]","name":"friends_","type":"uint256[]"}],"stateMutability":"view","type":"function"}],"evm":{"bytecode":{"linkReferences":{},"object":"608060405234801561001057600080fd5b506102f4806100206000396000f3fe608060405234801561001057600080fd5b50600436106100365760003560e01c80631c9a53ce1461003b578063c4132d7f1461006b575b600080fd5b6100556004803603810190610050919061014b565b610087565b604051610062919061023d565b60405180910390f35b61008560048036038101906100809190610178565b6100f5565b005b6060600060020160008381526020019081526020016000208054806020026020016040519081016040528092919081815260200182805480156100e957602002820191906000526020600020905b8154815260200190600101908083116100d5575b50505050509050919050565b600060020160008381526020019081526020016000208190806001815401808255809150506001900390600052602060002001600090919091909150555050565b600081359050610145816102a7565b92915050565b600060208284031215610161576101606102a2565b5b600061016f84828501610136565b91505092915050565b6000806040838503121561018f5761018e6102a2565b5b600061019d85828601610136565b92505060206101ae85828601610136565b9150509250929050565b60006101c4838361022e565b60208301905092915050565b60006101db8261026f565b6101e58185610287565b93506101f08361025f565b8060005b8381101561022157815161020888826101b8565b97506102138361027a565b9250506001810190506101f4565b5085935050505092915050565b61023781610298565b82525050565b6000602082019050818103600083015261025781846101d0565b905092915050565b6000819050602082019050919050565b600081519050919050565b6000602082019050919050565b600082825260208201905092915050565b6000819050919050565b600080fd5b6102b081610298565b81146102bb57600080fd5b5056fea2646970667358221220210a559945b0e091dd337dacb4647acf103afacb1b6f94eebb3f541f3faff99564736f6c63430008060033","opcodes":"PUSH1 0x80 PUSH1 0x40 MSTORE CALLVALUE DUP1 ISZERO PUSH2 0x10 JUMPI PUSH1 0x0 DUP1 REVERT JUMPDEST POP PUSH2 0x2F4 DUP1 PUSH2 0x20 PUSH1 0x0 CODECOPY PUSH1 0x0 RETURN INVALID PUSH1 0x80 PUSH1 0x40 MSTORE CALLVALUE DUP1 ISZERO PUSH2 0x10 JUMPI PUSH1 0x0 DUP1 REVERT JUMPDEST POP PUSH1 0x4 CALLDATASIZE LT PUSH2 0x36 JUMPI PUSH1 0x0 CALLDATALOAD PUSH1 0xE0 SHR DUP1 PUSH4 0x1C9A53CE EQ PUSH2 0x3B JUMPI DUP1 PUSH4 0xC4132D7F EQ PUSH2 0x6B JUMPI JUMPDEST PUSH1 0x0 DUP1 REVERT JUMPDEST PUSH2 0x55 PUSH1 0x4 DUP1 CALLDATASIZE SUB DUP2 ADD SWAP1 PUSH2 0x50 SWAP2 SWAP1 PUSH2 0x14B JUMP JUMPDEST PUSH2 0x87 JUMP JUMPDEST PUSH1 0x40 MLOAD PUSH2 0x62 SWAP2 SWAP1 PUSH2 0x23D JUMP JUMPDEST PUSH1 0x40 MLOAD DUP1 SWAP2 SUB SWAP1 RETURN JUMPDEST PUSH2 0x85 PUSH1 0x4 DUP1 CALLDATASIZE SUB DUP2 ADD SWAP1 PUSH2 0x80 SWAP2 SWAP1 PUSH2 0x178 JUMP JUMPDEST PUSH2 0xF5 JUMP JUMPDEST STOP JUMPDEST PUSH1 0x60 PUSH1 0x0 PUSH1 0x2 ADD PUSH1 0x0 DUP4 DUP2 MSTORE PUSH1 0x20 ADD SWAP1 DUP2 MSTORE PUSH1 0x20 ADD PUSH1 0x0 KECCAK256 DUP1 SLOAD DUP1 PUSH1 0x20 MUL PUSH1 0x20 ADD PUSH1 0x40 MLOAD SWAP1 DUP2 ADD PUSH1 0x40 MSTORE DUP1 SWAP3 SWAP2 SWAP1 DUP2 DUP2 MSTORE PUSH1 0x20 ADD DUP3 DUP1 SLOAD DUP1 ISZERO PUSH2 0xE9 JUMPI PUSH1 0x20 MUL DUP3 ADD SWAP2 SWAP1 PUSH1 0x0 MSTORE PUSH1 0x20 PUSH1 0x0 KECCAK256 SWAP1 JUMPDEST DUP2 SLOAD DUP2 MSTORE PUSH1 0x20 ADD SWAP1 PUSH1 0x1 ADD SWAP1 DUP1 DUP4 GT PUSH2 0xD5 JUMPI JUMPDEST POP POP POP POP POP SWAP1 POP SWAP2 SWAP1 POP JUMP JUMPDEST PUSH1 0x0 PUSH1 0x2 ADD PUSH1 0x0 DUP4 DUP2 MSTORE PUSH1 0x20 ADD SWAP1 DUP2 MSTORE PUSH1 0x20 ADD PUSH1 0x0 KECCAK256 DUP2 SWAP1 DUP1 PUSH1 0x1 DUP2 SLOAD ADD DUP1 DUP3 SSTORE DUP1 SWAP2 POP POP PUSH1 0x1 SWAP1 SUB SWAP1 PUSH1 0x0 MSTORE PUSH1 0x20 PUSH1 0x0 KECCAK256 ADD PUSH1 0x0 SWAP1 SWAP2 SWAP1 SWAP2 SWAP1 SWAP2 POP SSTORE POP POP JUMP JUMPDEST PUSH1 0x0 DUP2 CALLDATALOAD SWAP1 POP PUSH2 0x145 DUP2 PUSH2 0x2A7 JUMP JUMPDEST SWAP3 SWAP2 POP POP JUMP JUMPDEST PUSH1 0x0 PUSH1 0x20 DUP3 DUP5 SUB SLT ISZERO PUSH2 0x161 JUMPI PUSH2 0x160 PUSH2 0x2A2 JUMP JUMPDEST JUMPDEST PUSH1 0x0 PUSH2 0x16F DUP5 DUP3 DUP6 ADD PUSH2 0x136 JUMP JUMPDEST SWAP2 POP POP SWAP3 SWAP2 POP POP JUMP JUMPDEST PUSH1 0x0 DUP1 PUSH1 0x40 DUP4 DUP6 SUB SLT ISZERO PUSH2 0x18F JUMPI PUSH2 0x18E PUSH2 0x2A2 JUMP JUMPDEST JUMPDEST PUSH1 0x0 PUSH2 0x19D DUP6 DUP3 DUP7 ADD PUSH2 0x136 JUMP JUMPDEST SWAP3 POP POP PUSH1 0x20 PUSH2 0x1AE DUP6 DUP3 DUP7 ADD PUSH2 0x136 JUMP JUMPDEST SWAP2 POP POP SWAP3 POP SWAP3 SWAP1 POP JUMP JUMPDEST PUSH1 0x0 PUSH2 0x1C4 DUP4 DUP4 PUSH2 0x22E JUMP JUMPDEST PUSH1 0x20 DUP4 ADD SWAP1 POP SWAP3 SWAP2 POP POP JUMP JUMPDEST PUSH1 0x0 PUSH2 0x1DB DUP3 PUSH2 0x26F JUMP JUMPDEST PUSH2 0x1E5 DUP2 DUP6 PUSH2 0x287 JUMP JUMPDEST SWAP4 POP PUSH2 0x1F0 DUP4 PUSH2 0x25F JUMP JUMPDEST DUP1 PUSH1 0x0 JUMPDEST DUP4 DUP2 LT ISZERO PUSH2 0x221 JUMPI DUP2 MLOAD PUSH2 0x208 DUP9 DUP3 PUSH2 0x1B8 JUMP JUMPDEST SWAP8 POP PUSH2 0x213 DUP4 PUSH2 0x27A JUMP JUMPDEST SWAP3 POP POP PUSH1 0x1 DUP2 ADD SWAP1 POP PUSH2 0x1F4 JUMP JUMPDEST POP DUP6 SWAP4 POP POP POP POP SWAP3 SWAP2 POP POP JUMP JUMPDEST PUSH2 0x237 DUP2 PUSH2 0x298 JUMP JUMPDEST DUP3 MSTORE POP POP JUMP JUMPDEST PUSH1 0x0 PUSH1 0x20 DUP3 ADD SWAP1 POP DUP2 DUP2 SUB PUSH1 0x0 DUP4 ADD MSTORE PUSH2 0x257 DUP2 DUP5 PUSH2 0x1D0 JUMP JUMPDEST SWAP1 POP SWAP3 SWAP2 POP POP JUMP JUMPDEST PUSH1 0x0 DUP2 SWAP1 POP PUSH1 0x20 DUP3 ADD SWAP1 POP SWAP2 SWAP1 POP JUMP JUMPDEST PUSH1 0x0 DUP2 MLOAD SWAP1 POP SWAP2 SWAP1 POP JUMP JUMPDEST PUSH1 0x0 PUSH1 0x20 DUP3 ADD SWAP1 POP SWAP2 SWAP1 POP JUMP JUMPDEST PUSH1 0x0 DUP3 DUP3 MSTORE PUSH1 0x20 DUP3 ADD SWAP1 POP SWAP3 SWAP2 POP POP JUMP JUMPDEST PUSH1 0x0 DUP2 SWAP1 POP SWAP2 SWAP1 POP JUMP JUMPDEST PUSH1 0x0 DUP1 REVERT JUMPDEST PUSH2 0x2B0 DUP2 PUSH2 0x298 JUMP JUMPDEST DUP2 EQ PUSH2 0x2BB JUMPI PUSH1 0x0 DUP1 REVERT JUMPDEST POP JUMP INVALID LOG2 PUSH5 0x6970667358 0x22 SLT KECCAK256 0x21 EXP SSTORE SWAP10 GASLIMIT 0xB0 0xE0 SWAP2 0xDD CALLER PUSH30 0xACB4647ACF103AFACB1B6F94EEBB3F541F3FAFF99564736F6C6343000806 STOP CALLER "},"methodIdentifiers":{"addFriend(uint256,uint256)":"c4132d7f","getFriends(uint256)":"1c9a53ce"}}}}}