{"contracts/facets/Test2Facet.sol":{"Test2Facet":{"abi":[{"inputs":[],"name":"test2Func1","outputs":[{"internalType":"string","name":"","type":"string"}],"stateMutability":"pure","type":"function"},{"inputs":[],"name":"test2Func10","outputs":[],"stateMutability":"nonpayable","type":"function"},{"inputs":[],"name":"test2Func11","outputs":[],"stateMutability":"nonpayable","type":"function"},{"inputs":[],"name":"test2Func12","outputs":[],"stateMutability":"nonpayable","type":"function"},{"inputs":[],"name":"test2Func13","outputs":[],"stateMutability":"nonpayable","type":"function"},{"inputs":[],"name":"test2Func14","outputs":[],"stateMutability":"nonpayable","type":"function"},{"inputs":[],"name":"test2Func15","outputs":[],"stateMutability":"nonpayable","type":"function"},{"inputs":[],"name":"test2Func16","outputs":[],"stateMutability":"nonpayable","type":"function"},{"inputs":[],"name":"test2Func17","outputs":[],"stateMutability":"nonpayable","type":"function"},{"inputs":[],"name":"test2Func18","outputs":[],"stateMutability":"nonpayable","type":"function"},{"inputs":[],"name":"test2Func19","outputs":[],"stateMutability":"nonpayable","type":"function"},{"inputs":[],"name":"test2Func2","outputs":[],"stateMutability":"nonpayable","type":"function"},{"inputs":[],"name":"test2Func20","outputs":[],"stateMutability":"nonpayable","type":"function"},{"inputs":[],"name":"test2Func3","outputs":[],"stateMutability":"nonpayable","type":"function"},{"inputs":[],"name":"test2Func4","outputs":[],"stateMutability":"nonpayable","type":"function"},{"inputs":[],"name":"test2Func5","outputs":[],"stateMutability":"nonpayable","type":"function"},{"inputs":[],"name":"test2Func6","outputs":[],"stateMutability":"nonpayable","type":"function"},{"inputs":[],"name":"test2Func7","outputs":[],"stateMutability":"nonpayable","type":"function"},{"inputs":[],"name":"test2Func8","outputs":[],"stateMutability":"nonpayable","type":"function"},{"inputs":[],"name":"test2Func9","outputs":[],"stateMutability":"nonpayable","type":"function"}],"evm":{"bytecode":{"linkReferences":{},"object":"608060405234801561001057600080fd5b50610361806100206000396000f3fe608060405234801561001057600080fd5b506004361061012c5760003560e01c80638ee8be30116100ad578063d2f0c73e11610071578063d2f0c73e146101c7578063e5f687b2146101d1578063e7de23a4146101db578063ea36b558146101e5578063ef3f4d78146102035761012c565b80638ee8be301461019557806391d0396b1461019f578063c670641d146101a9578063ca5fa5c0146101b3578063caae8f23146101bd5761012c565b80632e463958116100f45780632e463958146101635780635fd6312b1461016d5780636dc16b0114610177578063792a8e2e14610181578063884280a61461018b5761012c565b806303feeeae146101315780630c103a931461013b5780630e4cd7fc14610145578063148843091461014f57806317fd06e714610159575b600080fd5b61013961020d565b005b61014361020f565b005b61014d610211565b005b610157610213565b005b610161610215565b005b61016b610217565b005b610175610219565b005b61017f61021b565b005b61018961021d565b005b61019361021f565b005b61019d610221565b005b6101a7610223565b005b6101b1610225565b005b6101bb610227565b005b6101c5610229565b005b6101cf61022b565b005b6101d961022d565b005b6101e361022f565b005b6101ed610231565b6040516101fa91906102a9565b60405180910390f35b61020b61026e565b005b565b565b565b565b565b565b565b565b565b565b565b565b565b565b565b565b565b565b60606040518060400160405280601781526020017f54657374324661636574202d20746573743246756e6331000000000000000000815250905090565b565b600061027b826102cb565b61028581856102d6565b93506102958185602086016102e7565b61029e8161031a565b840191505092915050565b600060208201905081810360008301526102c38184610270565b905092915050565b600081519050919050565b600082825260208201905092915050565b60005b838110156103055780820151818401526020810190506102ea565b83811115610314576000848401525b50505050565b6000601f19601f830116905091905056fea26469706673582212203544123fb3f43a61c9efc00464961cd4895fc0e3e170600fcce3b770723b070364736f6c63430008060033","opcodes":"PUSH1 0x80 PUSH1 0x40 MSTORE CALLVALUE DUP1 ISZERO PUSH2 0x10 JUMPI PUSH1 0x0 DUP1 REVERT JUMPDEST POP PUSH2 0x361 DUP1 PUSH2 0x20 PUSH1 0x0 CODECOPY PUSH1 0x0 RETURN INVALID PUSH1 0x80 PUSH1 0x40 MSTORE CALLVALUE DUP1 ISZERO PUSH2 0x10 JUMPI PUSH1 0x0 DUP1 REVERT JUMPDEST POP PUSH1 0x4 CALLDATASIZE LT PUSH2 0x12C JUMPI PUSH1 0x0 CALLDATALOAD PUSH1 0xE0 SHR DUP1 PUSH4 0x8EE8BE30 GT PUSH2 0xAD JUMPI DUP1 PUSH4 0xD2F0C73E GT PUSH2 0x71 JUMPI DUP1 PUSH4 0xD2F0C73E EQ PUSH2 0x1C7 JUMPI DUP1 PUSH4 0xE5F687B2 EQ PUSH2 0x1D1 JUMPI DUP1 PUSH4 0xE7DE23A4 EQ PUSH2 0x1DB JUMPI DUP1 PUSH4 0xEA36B558 EQ PUSH2 0x1E5 JUMPI DUP1 PUSH4 0xEF3F4D78 EQ PUSH2 0x203 JUMPI PUSH2 0x12C JUMP JUMPDEST DUP1 PUSH4 0x8EE8BE30 EQ PUSH2 0x195 JUMPI DUP1 PUSH4 0x91D0396B EQ PUSH2 0x19F JUMPI DUP1 PUSH4 0xC670641D EQ PUSH2 0x1A9 JUMPI DUP1 PUSH4 0xCA5FA5C0 EQ PUSH2 0x1B3 JUMPI DUP1 PUSH4 0xCAAE8F23 EQ PUSH2 0x1BD JUMPI PUSH2 0x12C JUMP JUMPDEST DUP1 PUSH4 0x2E463958 GT PUSH2 0xF4 JUMPI DUP1 PUSH4 0x2E463958 EQ PUSH2 0x163 JUMPI DUP1 PUSH4 0x5FD6312B EQ PUSH2 0x16D JUMPI DUP1 PUSH4 0x6DC16B01 EQ PUSH2 0x177 JUMPI DUP1 PUSH4 0x792A8E2E EQ PUSH2 0x181 JUMPI DUP1 PUSH4 0x884280A6 EQ PUSH2 0x18B JUMPI PUSH2 0x12C JUMP JUMPDEST DUP1 PUSH4 0x3FEEEAE EQ PUSH2 0x131 JUMPI DUP1 PUSH4 0xC103A93 EQ PUSH2 0x13B JUMPI DUP1 PUSH4 0xE4CD7FC EQ PUSH2 0x145 JUMPI DUP1 PUSH4 0x14884309 EQ PUSH2 0x14F JUMPI DUP1 PUSH4 0x17FD06E7 EQ PUSH2 0x159 JUMPI JUMPDEST PUSH1 0x0 DUP1 REVERT JUMPDEST PUSH2 0x139 PUSH2 0x20D JUMP JUMPDEST STOP JUMPDEST PUSH2 0x143 PUSH2 0x20F JUMP JUMPDEST STOP JUMPDEST PUSH2 0x14D PUSH2 0x211 JUMP JUMPDEST STOP JUMPDEST PUSH2 0x157 PUSH2 0x213 JUMP JUMPDEST STOP JUMPDEST PUSH2 0x161 PUSH2 0x215 JUMP JUMPDEST STOP JUMPDEST PUSH2 0x16B PUSH2 0x217 JUMP JUMPDEST STOP JUMPDEST PUSH2 0x175 PUSH2 0x219 JUMP JUMPDEST STOP JUMPDEST PUSH2 0x17F PUSH2 0x21B JUMP JUMPDEST STOP JUMPDEST PUSH2 0x189 PUSH2 0x21D JUMP JUMPDEST STOP JUMPDEST PUSH2 0x193 PUSH2 0x21F JUMP JUMPDEST STOP JUMPDEST PUSH2 0x19D PUSH2 0x221 JUMP JUMPDEST STOP JUMPDEST PUSH2 0x1A7 PUSH2 0x223 JUMP JUMPDEST STOP JUMPDEST PUSH2 0x1B1 PUSH2 0x225 JUMP JUMPDEST STOP JUMPDEST PUSH2 0x1BB PUSH2 0x227 JUMP JUMPDEST STOP JUMPDEST PUSH2 0x1C5 PUSH2 0x229 JUMP JUMPDEST STOP JUMPDEST PUSH2 0x1CF PUSH2 0x22B JUMP JUMPDEST STOP JUMPDEST PUSH2 0x1D9 PUSH2 0x22D JUMP JUMPDEST STOP JUMPDEST PUSH2 0x1E3 PUSH2 0x22F JUMP JUMPDEST STOP JUMPDEST PUSH2 0x1ED PUSH2 0x231 JUMP JUMPDEST PUSH1 0x40 MLOAD PUSH2 0x1FA SWAP2 SWAP1 PUSH2 0x2A9 JUMP JUMPDEST PUSH1 0x40 MLOAD DUP1 SWAP2 SUB SWAP1 RETURN JUMPDEST PUSH2 0x20B PUSH2 0x26E JUMP JUMPDEST STOP JUMPDEST JUMP JUMPDEST JUMP JUMPDEST JUMP JUMPDEST JUMP JUMPDEST JUMP JUMPDEST JUMP JUMPDEST JUMP JUMPDEST JUMP JUMPDEST JUMP JUMPDEST JUMP JUMPDEST JUMP JUMPDEST JUMP JUMPDEST JUMP JUMPDEST JUMP JUMPDEST JUMP JUMPDEST JUMP JUMPDEST JUMP JUMPDEST JUMP JUMPDEST PUSH1 0x60 PUSH1 0x40 MLOAD DUP1 PUSH1 0x40 ADD PUSH1 0x40 MSTORE DUP1 PUSH1 0x17 DUP2 MSTORE PUSH1 0x20 ADD PUSH32 0x54657374324661636574202D20746573743246756E6331000000000000000000 DUP2 MSTORE POP SWAP1 POP SWAP1 JUMP JUMPDEST JUMP JUMPDEST PUSH1 0x0 PUSH2 0x27B DUP3 PUSH2 0x2CB JUMP JUMPDEST PUSH2 0x285 DUP2 DUP6 PUSH2 0x2D6 JUMP JUMPDEST SWAP4 POP PUSH2 0x295 DUP2 DUP6 PUSH1 0x20 DUP7 ADD PUSH2 0x2E7 JUMP JUMPDEST PUSH2 0x29E DUP2 PUSH2 0x31A JUMP JUMPDEST DUP5 ADD SWAP2 POP POP SWAP3 SWAP2 POP POP JUMP JUMPDEST PUSH1 0x0 PUSH1 0x20 DUP3 ADD SWAP1 POP DUP2 DUP2 SUB PUSH1 0x0 DUP4 ADD MSTORE PUSH2 0x2C3 DUP2 DUP5 PUSH2 0x270 JUMP JUMPDEST SWAP1 POP SWAP3 SWAP2 POP POP JUMP JUMPDEST PUSH1 0x0 DUP2 MLOAD SWAP1 POP SWAP2 SWAP1 POP JUMP JUMPDEST PUSH1 0x0 DUP3 DUP3 MSTORE PUSH1 0x20 DUP3 ADD SWAP1 POP SWAP3 SWAP2 POP POP JUMP JUMPDEST PUSH1 0x0 JUMPDEST DUP4 DUP2 LT ISZERO PUSH2 0x305 JUMPI DUP1 DUP3 ADD MLOAD DUP2 DUP5 ADD MSTORE PUSH1 0x20 DUP2 ADD SWAP1 POP PUSH2 0x2EA JUMP JUMPDEST DUP4 DUP2 GT ISZERO PUSH2 0x314 JUMPI PUSH1 0x0 DUP5 DUP5 ADD MSTORE JUMPDEST POP POP POP POP JUMP JUMPDEST PUSH1 0x0 PUSH1 0x1F NOT PUSH1 0x1F DUP4 ADD AND SWAP1 POP SWAP2 SWAP1 POP JUMP INVALID LOG2 PUSH5 0x6970667358 0x22 SLT KECCAK256 CALLDATALOAD DIFFICULTY SLT EXTCODEHASH 0xB3 DELEGATECALL GASPRICE PUSH2 0xC9EF 0xC0 DIV PUSH5 0x961CD4895F 0xC0 0xE3 0xE1 PUSH17 0x600FCCE3B770723B070364736F6C634300 ADDMOD MOD STOP CALLER "},"methodIdentifiers":{"test2Func1()":"ea36b558","test2Func10()":"8ee8be30","test2Func11()":"884280a6","test2Func12()":"ca5fa5c0","test2Func13()":"6dc16b01","test2Func14()":"91d0396b","test2Func15()":"03feeeae","test2Func16()":"2e463958","test2Func17()":"14884309","test2Func18()":"0c103a93","test2Func19()":"5fd6312b","test2Func2()":"e7de23a4","test2Func20()":"792a8e2e","test2Func3()":"0e4cd7fc","test2Func4()":"c670641d","test2Func5()":"d2f0c73e","test2Func6()":"17fd06e7","test2Func7()":"ef3f4d78","test2Func8()":"e5f687b2","test2Func9()":"caae8f23"}}}}}