{"contracts/facets/Test1Facet.sol":{"Test1Facet":{"abi":[{"anonymous":false,"inputs":[{"indexed":false,"internalType":"address","name":"something","type":"address"}],"name":"TestEvent","type":"event"},{"inputs":[{"internalType":"bytes4","name":"_interfaceID","type":"bytes4"}],"name":"supportsInterface","outputs":[{"internalType":"bool","name":"","type":"bool"}],"stateMutability":"view","type":"function"},{"inputs":[],"name":"test1Func1","outputs":[{"internalType":"string","name":"","type":"string"}],"stateMutability":"pure","type":"function"},{"inputs":[],"name":"test1Func10","outputs":[],"stateMutability":"nonpayable","type":"function"},{"inputs":[],"name":"test1Func11","outputs":[],"stateMutability":"nonpayable","type":"function"},{"inputs":[],"name":"test1Func12","outputs":[],"stateMutability":"nonpayable","type":"function"},{"inputs":[],"name":"test1Func13","outputs":[],"stateMutability":"nonpayable","type":"function"},{"inputs":[],"name":"test1Func14","outputs":[],"stateMutability":"nonpayable","type":"function"},{"inputs":[],"name":"test1Func15","outputs":[],"stateMutability":"nonpayable","type":"function"},{"inputs":[],"name":"test1Func16","outputs":[],"stateMutability":"nonpayable","type":"function"},{"inputs":[],"name":"test1Func17","outputs":[],"stateMutability":"nonpayable","type":"function"},{"inputs":[],"name":"test1Func18","outputs":[],"stateMutability":"nonpayable","type":"function"},{"inputs":[],"name":"test1Func19","outputs":[],"stateMutability":"nonpayable","type":"function"},{"inputs":[],"name":"test1Func2","outputs":[],"stateMutability":"nonpayable","type":"function"},{"inputs":[],"name":"test1Func20","outputs":[],"stateMutability":"nonpayable","type":"function"},{"inputs":[],"name":"test1Func3","outputs":[],"stateMutability":"nonpayable","type":"function"},{"inputs":[],"name":"test1Func4","outputs":[],"stateMutability":"nonpayable","type":"function"},{"inputs":[],"name":"test1Func5","outputs":[],"stateMutability":"nonpayable","type":"function"},{"inputs":[],"name":"test1Func6","outputs":[],"stateMutability":"nonpayable","type":"function"},{"inputs":[],"name":"test1Func7","outputs":[],"stateMutability":"nonpayable","type":"function"},{"inputs":[],"name":"test1Func8","outputs":[],"stateMutability":"nonpayable","type":"function"},{"inputs":[],"name":"test1Func9","outputs":[],"stateMutability":"nonpayable","type":"function"}],"evm":{"bytecode":{"linkReferences":{},"object":"608060405234801561001057600080fd5b50610468806100206000396000f3fe608060405234801561001057600080fd5b50600436106101375760003560e01c806351b68a4d116100b85780639abf97aa1161007c5780639abf97aa1461020c578063b0e8fcc714610216578063cbb835f614610220578063cd0bae091461022a578063cf3bbe1814610234578063db32da151461023e57610137565b806351b68a4d146101da57806371a99d6f146101e457806377e9d0d6146101ee57806381b5207d146101f857806387952d221461020257610137565b806324c1d5a7116100ff57806324c1d5a7146101a8578063292c460d146101b25780632cb83248146101bc5780634484b3b9146101c657806350eb3f43146101d057610137565b806301ffc9a71461013c5780630716c2ae1461016c578063110460471461017657806319c841ab1461018057806319e3b5331461018a575b600080fd5b610156600480360381019061015191906102aa565b610248565b604051610163919061031f565b60405180910390f35b61017461024f565b005b61017e610251565b005b610188610253565b005b610192610255565b60405161019f919061033a565b60405180910390f35b6101b0610275565b005b6101ba610277565b005b6101c4610279565b005b6101ce61027b565b005b6101d861027d565b005b6101e261027f565b005b6101ec610281565b005b6101f6610283565b005b610200610285565b005b61020a610287565b005b610214610289565b005b61021e61028b565b005b61022861028d565b005b61023261028f565b005b61023c610291565b005b610246610293565b005b6000919050565b565b565b565b606060405180606001604052806022815260200161041160229139905090565b565b565b565b565b565b565b565b565b565b565b565b565b565b565b565b565b6000813590506102a4816103f9565b92915050565b6000602082840312156102c0576102bf6103e3565b5b60006102ce84828501610295565b91505092915050565b6102e081610378565b82525050565b60006102f18261035c565b6102fb8185610367565b935061030b8185602086016103b0565b610314816103e8565b840191505092915050565b600060208201905061033460008301846102d7565b92915050565b6000602082019050818103600083015261035481846102e6565b905092915050565b600081519050919050565b600082825260208201905092915050565b60008115159050919050565b60007fffffffff0000000000000000000000000000000000000000000000000000000082169050919050565b60005b838110156103ce5780820151818401526020810190506103b3565b838111156103dd576000848401525b50505050565b600080fd5b6000601f19601f8301169050919050565b61040281610384565b811461040d57600080fd5b5056fe54657374314661636574202d20746573743146756e6331202d205570677261646564a26469706673582212205c5d7ace973823bd55b9916d38bb902668b2cd7a37b0ded989c0675e6402c22964736f6c63430008060033","opcodes":"PUSH1 0x80 PUSH1 0x40 MSTORE CALLVALUE DUP1 ISZERO PUSH2 0x10 JUMPI PUSH1 0x0 DUP1 REVERT JUMPDEST POP PUSH2 0x468 DUP1 PUSH2 0x20 PUSH1 0x0 CODECOPY PUSH1 0x0 RETURN INVALID PUSH1 0x80 PUSH1 0x40 MSTORE CALLVALUE DUP1 ISZERO PUSH2 0x10 JUMPI PUSH1 0x0 DUP1 REVERT JUMPDEST POP PUSH1 0x4 CALLDATASIZE LT PUSH2 0x137 JUMPI PUSH1 0x0 CALLDATALOAD PUSH1 0xE0 SHR DUP1 PUSH4 0x51B68A4D GT PUSH2 0xB8 JUMPI DUP1 PUSH4 0x9ABF97AA GT PUSH2 0x7C JUMPI DUP1 PUSH4 0x9ABF97AA EQ PUSH2 0x20C JUMPI DUP1 PUSH4 0xB0E8FCC7 EQ PUSH2 0x216 JUMPI DUP1 PUSH4 0xCBB835F6 EQ PUSH2 0x220 JUMPI DUP1 PUSH4 0xCD0BAE09 EQ PUSH2 0x22A JUMPI DUP1 PUSH4 0xCF3BBE18 EQ PUSH2 0x234 JUMPI DUP1 PUSH4 0xDB32DA15 EQ PUSH2 0x23E JUMPI PUSH2 0x137 JUMP JUMPDEST DUP1 PUSH4 0x51B68A4D EQ PUSH2 0x1DA JUMPI DUP1 PUSH4 0x71A99D6F EQ PUSH2 0x1E4 JUMPI DUP1 PUSH4 0x77E9D0D6 EQ PUSH2 0x1EE JUMPI DUP1 PUSH4 0x81B5207D EQ PUSH2 0x1F8 JUMPI DUP1 PUSH4 0x87952D22 EQ PUSH2 0x202 JUMPI PUSH2 0x137 JUMP JUMPDEST DUP1 PUSH4 0x24C1D5A7 GT PUSH2 0xFF JUMPI DUP1 PUSH4 0x24C1D5A7 EQ PUSH2 0x1A8 JUMPI DUP1 PUSH4 0x292C460D EQ PUSH2 0x1B2 JUMPI DUP1 PUSH4 0x2CB83248 EQ PUSH2 0x1BC JUMPI DUP1 PUSH4 0x4484B3B9 EQ PUSH2 0x1C6 JUMPI DUP1 PUSH4 0x50EB3F43 EQ PUSH2 0x1D0 JUMPI PUSH2 0x137 JUMP JUMPDEST DUP1 PUSH4 0x1FFC9A7 EQ PUSH2 0x13C JUMPI DUP1 PUSH4 0x716C2AE EQ PUSH2 0x16C JUMPI DUP1 PUSH4 0x11046047 EQ PUSH2 0x176 JUMPI DUP1 PUSH4 0x19C841AB EQ PUSH2 0x180 JUMPI DUP1 PUSH4 0x19E3B533 EQ PUSH2 0x18A JUMPI JUMPDEST PUSH1 0x0 DUP1 REVERT JUMPDEST PUSH2 0x156 PUSH1 0x4 DUP1 CALLDATASIZE SUB DUP2 ADD SWAP1 PUSH2 0x151 SWAP2 SWAP1 PUSH2 0x2AA JUMP JUMPDEST PUSH2 0x248 JUMP JUMPDEST PUSH1 0x40 MLOAD PUSH2 0x163 SWAP2 SWAP1 PUSH2 0x31F JUMP JUMPDEST PUSH1 0x40 MLOAD DUP1 SWAP2 SUB SWAP1 RETURN JUMPDEST PUSH2 0x174 PUSH2 0x24F JUMP JUMPDEST STOP JUMPDEST PUSH2 0x17E PUSH2 0x251 JUMP JUMPDEST STOP JUMPDEST PUSH2 0x188 PUSH2 0x253 JUMP JUMPDEST STOP JUMPDEST PUSH2 0x192 PUSH2 0x255 JUMP JUMPDEST PUSH1 0x40 MLOAD PUSH2 0x19F SWAP2 SWAP1 PUSH2 0x33A JUMP JUMPDEST PUSH1 0x40 MLOAD DUP1 SWAP2 SUB SWAP1 RETURN JUMPDEST PUSH2 0x1B0 PUSH2 0x275 JUMP JUMPDEST STOP JUMPDEST PUSH2 0x1BA PUSH2 0x277 JUMP JUMPDEST STOP JUMPDEST PUSH2 0x1C4 PUSH2 0x279 JUMP JUMPDEST STOP JUMPDEST PUSH2 0x1CE PUSH2 0x27B JUMP JUMPDEST STOP JUMPDEST PUSH2 0x1D8 PUSH2 0x27D JUMP JUMPDEST STOP JUMPDEST PUSH2 0x1E2 PUSH2 0x27F JUMP JUMPDEST STOP JUMPDEST PUSH2 0x1EC PUSH2 0x281 JUMP JUMPDEST STOP JUMPDEST PUSH2 0x1F6 PUSH2 0x283 JUMP JUMPDEST STOP JUMPDEST PUSH2 0x200 PUSH2 0x285 JUMP JUMPDEST STOP JUMPDEST PUSH2 0x20A PUSH2 0x287 JUMP JUMPDEST STOP JUMPDEST PUSH2 0x214 PUSH2 0x289 JUMP JUMPDEST STOP JUMPDEST PUSH2 0x21E PUSH2 0x28B JUMP JUMPDEST STOP JUMPDEST PUSH2 0x228 PUSH2 0x28D JUMP JUMPDEST STOP JUMPDEST PUSH2 0x232 PUSH2 0x28F JUMP JUMPDEST STOP JUMPDEST PUSH2 0x23C PUSH2 0x291 JUMP JUMPDEST STOP JUMPDEST PUSH2 0x246 PUSH2 0x293 JUMP JUMPDEST STOP JUMPDEST PUSH1 0x0 SWAP2 SWAP1 POP JUMP JUMPDEST JUMP JUMPDEST JUMP JUMPDEST JUMP JUMPDEST PUSH1 0x60 PUSH1 0x40 MLOAD DUP1 PUSH1 0x60 ADD PUSH1 0x40 MSTORE DUP1 PUSH1 0x22 DUP2 MSTORE PUSH1 0x20 ADD PUSH2 0x411 PUSH1 0x22 SWAP2 CODECOPY SWAP1 POP SWAP1 JUMP JUMPDEST JUMP JUMPDEST JUMP JUMPDEST JUMP JUMPDEST JUMP JUMPDEST JUMP JUMPDEST JUMP JUMPDEST JUMP JUMPDEST JUMP JUMPDEST JUMP JUMPDEST JUMP JUMPDEST JUMP JUMPDEST JUMP JUMPDEST JUMP JUMPDEST JUMP JUMPDEST JUMP JUMPDEST JUMP JUMPDEST PUSH1 0x0 DUP2 CALLDATALOAD SWAP1 POP PUSH2 0x2A4 DUP2 PUSH2 0x3F9 JUMP JUMPDEST SWAP3 SWAP2 POP POP JUMP JUMPDEST PUSH1 0x0 PUSH1 0x20 DUP3 DUP5 SUB SLT ISZERO PUSH2 0x2C0 JUMPI PUSH2 0x2BF PUSH2 0x3E3 JUMP JUMPDEST JUMPDEST PUSH1 0x0 PUSH2 0x2CE DUP5 DUP3 DUP6 ADD PUSH2 0x295 JUMP JUMPDEST SWAP2 POP POP SWAP3 SWAP2 POP POP JUMP JUMPDEST PUSH2 0x2E0 DUP2 PUSH2 0x378 JUMP JUMPDEST DUP3 MSTORE POP POP JUMP JUMPDEST PUSH1 0x0 PUSH2 0x2F1 DUP3 PUSH2 0x35C JUMP JUMPDEST PUSH2 0x2FB DUP2 DUP6 PUSH2 0x367 JUMP JUMPDEST SWAP4 POP PUSH2 0x30B DUP2 DUP6 PUSH1 0x20 DUP7 ADD PUSH2 0x3B0 JUMP JUMPDEST PUSH2 0x314 DUP2 PUSH2 0x3E8 JUMP JUMPDEST DUP5 ADD SWAP2 POP POP SWAP3 SWAP2 POP POP JUMP JUMPDEST PUSH1 0x0 PUSH1 0x20 DUP3 ADD SWAP1 POP PUSH2 0x334 PUSH1 0x0 DUP4 ADD DUP5 PUSH2 0x2D7 JUMP JUMPDEST SWAP3 SWAP2 POP POP JUMP JUMPDEST PUSH1 0x0 PUSH1 0x20 DUP3 ADD SWAP1 POP DUP2 DUP2 SUB PUSH1 0x0 DUP4 ADD MSTORE PUSH2 0x354 DUP2 DUP5 PUSH2 0x2E6 JUMP JUMPDEST SWAP1 POP SWAP3 SWAP2 POP POP JUMP JUMPDEST PUSH1 0x0 DUP2 MLOAD SWAP1 POP SWAP2 SWAP1 POP JUMP JUMPDEST PUSH1 0x0 DUP3 DUP3 MSTORE PUSH1 0x20 DUP3 ADD SWAP1 POP SWAP3 SWAP2 POP POP JUMP JUMPDEST PUSH1 0x0 DUP2 ISZERO ISZERO SWAP1 POP SWAP2 SWAP1 POP JUMP JUMPDEST PUSH1 0x0 PUSH32 0xFFFFFFFF00000000000000000000000000000000000000000000000000000000 DUP3 AND SWAP1 POP SWAP2 SWAP1 POP JUMP JUMPDEST PUSH1 0x0 JUMPDEST DUP4 DUP2 LT ISZERO PUSH2 0x3CE JUMPI DUP1 DUP3 ADD MLOAD DUP2 DUP5 ADD MSTORE PUSH1 0x20 DUP2 ADD SWAP1 POP PUSH2 0x3B3 JUMP JUMPDEST DUP4 DUP2 GT ISZERO PUSH2 0x3DD JUMPI PUSH1 0x0 DUP5 DUP5 ADD MSTORE JUMPDEST POP POP POP POP JUMP JUMPDEST PUSH1 0x0 DUP1 REVERT JUMPDEST PUSH1 0x0 PUSH1 0x1F NOT PUSH1 0x1F DUP4 ADD AND SWAP1 POP SWAP2 SWAP1 POP JUMP JUMPDEST PUSH2 0x402 DUP2 PUSH2 0x384 JUMP JUMPDEST DUP2 EQ PUSH2 0x40D JUMPI PUSH1 0x0 DUP1 REVERT JUMPDEST POP JUMP INVALID SLOAD PUSH6 0x737431466163 PUSH6 0x74202D207465 PUSH20 0x743146756E6331202D205570677261646564A264 PUSH10 0x706673582212205C5D7A 0xCE SWAP8 CODESIZE 0x23 0xBD SSTORE 0xB9 SWAP2 PUSH14 0x38BB902668B2CD7A37B0DED989C0 PUSH8 0x5E6402C22964736F PUSH13 0x63430008060033000000000000 "},"methodIdentifiers":{"supportsInterface(bytes4)":"01ffc9a7","test1Func1()":"19e3b533","test1Func10()":"87952d22","test1Func11()":"50eb3f43","test1Func12()":"81b5207d","test1Func13()":"19c841ab","test1Func14()":"51b68a4d","test1Func15()":"2cb83248","test1Func16()":"77e9d0d6","test1Func17()":"4484b3b9","test1Func18()":"9abf97aa","test1Func19()":"292c460d","test1Func2()":"0716c2ae","test1Func20()":"b0e8fcc7","test1Func3()":"11046047","test1Func4()":"cf3bbe18","test1Func5()":"24c1d5a7","test1Func6()":"cbb835f6","test1Func7()":"71a99d6f","test1Func8()":"db32da15","test1Func9()":"cd0bae09"}}}}}