{
  "_format": "hh-sol-artifact-1",
  "contractName": "Test1Facet",
  "sourceName": "contracts/facets/Test1Facet.sol",
  "abi": [
    {
      "anonymous": false,
      "inputs": [
        {
          "indexed": false,
          "internalType": "address",
          "name": "something",
          "type": "address"
        }
      ],
      "name": "TestEvent",
      "type": "event"
    },
    {
      "inputs": [
        {
          "internalType": "bytes4",
          "name": "_interfaceID",
          "type": "bytes4"
        }
      ],
      "name": "supportsInterface",
      "outputs": [
        {
          "internalType": "bool",
          "name": "",
          "type": "bool"
        }
      ],
      "stateMutability": "view",
      "type": "function"
    },
    {
      "inputs": [],
      "name": "test1Func1",
      "outputs": [
        {
          "internalType": "string",
          "name": "",
          "type": "string"
        }
      ],
      "stateMutability": "pure",
      "type": "function"
    },
    {
      "inputs": [],
      "name": "test1Func10",
      "outputs": [],
      "stateMutability": "nonpayable",
      "type": "function"
    },
    {
      "inputs": [],
      "name": "test1Func11",
      "outputs": [],
      "stateMutability": "nonpayable",
      "type": "function"
    },
    {
      "inputs": [],
      "name": "test1Func12",
      "outputs": [],
      "stateMutability": "nonpayable",
      "type": "function"
    },
    {
      "inputs": [],
      "name": "test1Func13",
      "outputs": [],
      "stateMutability": "nonpayable",
      "type": "function"
    },
    {
      "inputs": [],
      "name": "test1Func14",
      "outputs": [],
      "stateMutability": "nonpayable",
      "type": "function"
    },
    {
      "inputs": [],
      "name": "test1Func15",
      "outputs": [],
      "stateMutability": "nonpayable",
      "type": "function"
    },
    {
      "inputs": [],
      "name": "test1Func16",
      "outputs": [],
      "stateMutability": "nonpayable",
      "type": "function"
    },
    {
      "inputs": [],
      "name": "test1Func17",
      "outputs": [],
      "stateMutability": "nonpayable",
      "type": "function"
    },
    {
      "inputs": [],
      "name": "test1Func18",
      "outputs": [],
      "stateMutability": "nonpayable",
      "type": "function"
    },
    {
      "inputs": [],
      "name": "test1Func19",
      "outputs": [],
      "stateMutability": "nonpayable",
      "type": "function"
    },
    {
      "inputs": [],
      "name": "test1Func2",
      "outputs": [],
      "stateMutability": "nonpayable",
      "type": "function"
    },
    {
      "inputs": [],
      "name": "test1Func20",
      "outputs": [],
      "stateMutability": "nonpayable",
      "type": "function"
    },
    {
      "inputs": [],
      "name": "test1Func3",
      "outputs": [],
      "stateMutability": "nonpayable",
      "type": "function"
    },
    {
      "inputs": [],
      "name": "test1Func4",
      "outputs": [],
      "stateMutability": "nonpayable",
      "type": "function"
    },
    {
      "inputs": [],
      "name": "test1Func5",
      "outputs": [],
      "stateMutability": "nonpayable",
      "type": "function"
    },
    {
      "inputs": [],
      "name": "test1Func6",
      "outputs": [],
      "stateMutability": "nonpayable",
      "type": "function"
    },
    {
      "inputs": [],
      "name": "test1Func7",
      "outputs": [],
      "stateMutability": "nonpayable",
      "type": "function"
    },
    {
      "inputs": [],
      "name": "test1Func8",
      "outputs": [],
      "stateMutability": "nonpayable",
      "type": "function"
    },
    {
      "inputs": [],
      "name": "test1Func9",
      "outputs": [],
      "stateMutability": "nonpayable",
      "type": "function"
    }
  ],
  "bytecode": "0x608060405234801561001057600080fd5b50610468806100206000396000f3fe608060405234801561001057600080fd5b50600436106101375760003560e01c806351b68a4d116100b85780639abf97aa1161007c5780639abf97aa1461020c578063b0e8fcc714610216578063cbb835f614610220578063cd0bae091461022a578063cf3bbe1814610234578063db32da151461023e57610137565b806351b68a4d146101da57806371a99d6f146101e457806377e9d0d6146101ee57806381b5207d146101f857806387952d221461020257610137565b806324c1d5a7116100ff57806324c1d5a7146101a8578063292c460d146101b25780632cb83248146101bc5780634484b3b9146101c657806350eb3f43146101d057610137565b806301ffc9a71461013c5780630716c2ae1461016c578063110460471461017657806319c841ab1461018057806319e3b5331461018a575b600080fd5b610156600480360381019061015191906102aa565b610248565b604051610163919061031f565b60405180910390f35b61017461024f565b005b61017e610251565b005b610188610253565b005b610192610255565b60405161019f919061033a565b60405180910390f35b6101b0610275565b005b6101ba610277565b005b6101c4610279565b005b6101ce61027b565b005b6101d861027d565b005b6101e261027f565b005b6101ec610281565b005b6101f6610283565b005b610200610285565b005b61020a610287565b005b610214610289565b005b61021e61028b565b005b61022861028d565b005b61023261028f565b005b61023c610291565b005b610246610293565b005b6000919050565b565b565b565b606060405180606001604052806022815260200161041160229139905090565b565b565b565b565b565b565b565b565b565b565b565b565b565b565b565b565b6000813590506102a4816103f9565b92915050565b6000602082840312156102c0576102bf6103e3565b5b60006102ce84828501610295565b91505092915050565b6102e081610378565b82525050565b60006102f18261035c565b6102fb8185610367565b935061030b8185602086016103b0565b610314816103e8565b840191505092915050565b600060208201905061033460008301846102d7565b92915050565b6000602082019050818103600083015261035481846102e6565b905092915050565b600081519050919050565b600082825260208201905092915050565b60008115159050919050565b60007fffffffff0000000000000000000000000000000000000000000000000000000082169050919050565b60005b838110156103ce5780820151818401526020810190506103b3565b838111156103dd576000848401525b50505050565b600080fd5b6000601f19601f8301169050919050565b61040281610384565b811461040d57600080fd5b5056fe54657374314661636574202d20746573743146756e6331202d205570677261646564a26469706673582212205c5d7ace973823bd55b9916d38bb902668b2cd7a37b0ded989c0675e6402c22964736f6c63430008060033",
  "linkReferences": {},
  "deployedLinkReferences": {}
}